S00C00004C6162322E73726563D7
S11300000C942A000C9434000C9434000C943400A6
S11300100C9434000C9434000C9434000C9434008C
S11300200C9434000C9434000C9434000C9434007C
S11300300C9434000C9434000C9434000C9434006C
S11300400C9434000C9434000C9434000C9434005C
S11300500C94340011241FBECFE5D8E0DEBFCDBF21
S11300600E9466010C9425020C9400004130C1F5F5
S1130070813091F028F08230D9F0833029F16EC0BC
S113008081E090E002C0880F991F6A95E2F79AB365
S1130090892B8ABB80E0089581E090E002C0880F3C
S11300A0991F6A95E2F797B3892B87BB80E008957F
S11300B081E090E002C0880F991F6A95E2F794B33B
S11300C0892B84BB80E0089581E090E002C0880F12
S11300D0991F6A95E2F791B3892B81BB80E008955B
S11300E041113EC0813099F028F08230E9F083302C
S11300F041F138C081E090E002C0880F991F6A95F1
S1130100E2F780959AB389238ABB80E0089581E061
S113011090E002C0880F991F6A95E2F7809597B323
S1130120892387BB80E0089581E090E002C0880FB6
S1130130991F6A95E2F7809594B3892384BB80E084
S1130140089581E090E002C0880F991F6A95E2F754
S1130150809591B3892381BB80E0089581E008955F
S113016081E0089581E008954130C1F5813091F036
S113017028F08230D9F0833029F16EC081E090E01C
S113018002C0880F991F6A95E2F79BB3892B8BBB3A
S113019080E0089581E090E002C0880F991F6A957D
S11301A0E2F798B3892B88BB80E0089581E090E062
S11301B002C0880F991F6A95E2F795B3892B85BB16
S11301C080E0089581E090E002C0880F991F6A954D
S11301D0E2F792B3892B82BB80E0089541113EC0BF
S11301E0813099F028F08230E9F0833041F138C051
S11301F081E090E002C0880F991F6A95E2F780952C
S11302009BB389238BBB80E0089581E090E002C01A
S1130210880F991F6A95E2F7809598B3892388BB64
S113022080E0089581E090E002C0880F991F6A95EC
S1130230E2F7809595B3892385BB80E0089581E03A
S113024090E002C0880F991F6A95E2F7809592B3F7
S1130250892382BB80E0089581E0089581E00895B8
S113026081E00895813049F028F0823049F08330EC
S113027051F00CC06BBB80E0089568BB80E008952A
S113028065BB80E0089562BB80E0089581E0089535
S1130290813059F028F0823069F0833081F014C045
S11302A08BB3FB01808380E0089588B3FB018083D6
S11302B080E0089585B3FB01808380E0089582B3D4
S11302C0FB01808380E0089581E0089581E00E942D
S11302D07B0182E00E947B0110E00AC0812F0E9412
S11302E0FD01219702C0C2E3D0E02097B9F71F5F58
S11302F01336C8F3F1CFCF93813019F0823041F037
S11303000EC041E061E081E00E943600C0E008C018
S113031041E062E081E00E943600C0E001C0C1E03B
S1130320C11115C041E064E080E00E94360041E064
S113033065E080E00E94360041E066E080E00E94D3
S1130340360041E067E080E00E94360001C0C1E071
S11303508C2FCF9108951F93CF93DF931F92CDB726
S1130360DEB719826A3008F040C0162F813019F0C8
S11303708230F1F03CC040E062E081E00E94B400D1
S113038041E061E081E00E94B400BE016F5F7F4FF5
S113039080E00E94480180E1189FB0011124898106
S11303A08F70682B698380E00E94320180E020C056
S11303B040E061E081E00E94B40041E062E081E05D
S11303C00E94B400BE016F5F7F4F80E00E9448012D
S11303D080E1189FB001112489818F70682B698393
S11303E080E00E94320180E003C081E001C081E02E
S11303F00F90DF91CF911F910895CF93843610F51C
S1130400CDEC8C9FC12D1124C695C695C6952C2F75
S1130410220F922F990F990F920F682F691B81E079
S11304200E94AB018FE39CE90197F1F700C0000043
S11304306C2F82E00E94AB018FE39CE90197F1F7F6
S111044000C0000081E0CF910895F894FFCF32
S9030000FC
