S00C00004C6162342E73726563D5
S11300000C942A000C943F000C943F000C943F0085
S11300100C943F000C943F000C943F000C943F0060
S11300200C943F000C943F000C943F000C943F0050
S11300300C943F000C943F000C943F000C943F0040
S11300400C943F000C943F000C943F000C943F0030
S11300500C943F0011241FBECFE5D8E0DEBFCDBF16
S113006011E0A0E6B0E0ECECF2E102C005900D92E4
S1130070AE3BB107D9F70E94E0040C9464090C94D8
S113008000004130C1F5813091F028F08230D9F080
S1130090833029F16EC081E090E002C0880F991F7F
S11300A06A95E2F79AB3892B8ABB80E0089581E0D0
S11300B090E002C0880F991F6A95E2F797B3892BE5
S11300C087BB80E0089581E090E002C0880F991F0B
S11300D06A95E2F794B3892B84BB80E0089581E0AC
S11300E090E002C0880F991F6A95E2F791B3892BBB
S11300F081BB80E0089541113EC0813099F028F021
S11301008230E9F0833041F138C081E090E002C0F0
S1130110880F991F6A95E2F780959AB389238ABB61
S113012080E0089581E090E002C0880F991F6A95ED
S1130130E2F7809597B3892387BB80E0089581E037
S113014090E002C0880F991F6A95E2F7809594B3F6
S1130150892384BB80E0089581E090E002C0880F89
S1130160991F6A95E2F7809591B3892381BB80E05A
S1130170089581E0089581E0089581E00895413073
S1130180C1F5813091F028F08230D9F0833029F123
S11301906EC081E090E002C0880F991F6A95E2F773
S11301A09BB3892B8BBB80E0089581E090E002C073
S11301B0880F991F6A95E2F798B3892B88BB80E072
S11301C0089581E090E002C0880F991F6A95E2F7D4
S11301D095B3892B85BB80E0089581E090E002C04F
S11301E0880F991F6A95E2F792B3892B82BB80E04E
S11301F0089541113EC0813099F028F08230E9F031
S1130200833041F138C081E090E002C0880F991F2B
S11302106A95E2F780959BB389238BBB80E00895B0
S113022081E090E002C0880F991F6A95E2F78095FB
S113023098B3892388BB80E0089581E090E002C0F0
S1130240880F991F6A95E2F7809595B3892385BB3A
S113025080E0089581E090E002C0880F991F6A95BC
S1130260E2F7809592B3892382BB80E0089581E010
S1130270089581E0089581E00895813091F028F097
S11302808230D9F0833029F130C089B390E002C0C4
S1130290959587956A95E2F78170FA01808380E0ED
S11302A0089586B390E002C0959587956A95E2F724
S11302B08170FA01808380E0089583B390E002C0E6
S11302C0959587956A95E2F78170FA01808380E0BD
S11302D0089580B390E002C0959587956A95E2F7FA
S11302E08170FA01808380E0089581E0089581306F
S11302F049F028F0823049F0833051F00CC06BBBD8
S113030080E0089568BB80E0089565BB80E00895AF
S113031062BB80E0089581E00895813059F028F0AF
S1130320823069F0833081F014C089B3FB0180838B
S113033080E0089586B3FB01808380E0089583B351
S1130340FB01808380E0089580B3FB01808380E01B
S1130350089581E0089541E060E082E00E94410058
S113036041E061E082E00E94410041E064E083E01A
S11303700E94410041E063E082E00E94410041E0CC
S113038060E082E00E94BF0041E061E082E00E9400
S1130390BF0041E064E083E00E94BF0041E063E00D
S11303A082E00E94BF0040E064E082E00E944100DD
S11303B040E065E082E00E94410040E066E082E0C7
S11303C00E94410040E065E083E00E94410041E07A
S11303D064E082E00E94BF0041E065E082E00E94A8
S11303E0BF0041E066E082E00E94BF0041E065E0BA
S11303F083E00E94BF000895EF92FF920F931F9332
S1130400CF93DF93CDB7DEB761970FB6F894DEBF15
S11304100FBECDBF7C018EE4F701808380E1E8ED5F
S1130420F0E0DE01119601900D928A95E1F7198AA8
S113043000E081E086C0013061F028F0023079F0FC
S11304400330A1F011C040E060E082E00E94BF00F0
S11304500BC040E061E082E00E94BF0005C040E0C4
S113046064E083E00E94BF0010E043C040E063E02A
S113047082E00E94BF00F8CF113071F028F01230F2
S113048099F01330C9F01FC0AE014F5E5F4F64E0B6
S113049082E00E943D0117C0AE014F5E5F4F65E0F0
S11304A082E00E943D010FC0AE014F5E5F4F66E0E7
S11304B082E00E943D0107C0AE014F5E5F4F65E0E0
S11304C083E00E943D018989811112C0E02FF0E090
S11304D0EE0FFF1FEE0FFF1F81E090E08C0F9D1FBA
S11304E0E80FF91FE10FF11D8081F701808303C03C
S11304F01F5F143008F2013061F028F0023079F007
S1130500033099F018C041E060E082E00E94BF002F
S113051013C041E061E082E00E94BF000DC041E0F1
S113052064E083E00E94BF0007C041E063E082E032
S11305300E94BF0001C081E0F70190819E3421F444
S11305400F5F043008F477CF61960FB6F894DEBFDE
S11305500FBECDBFDF91CF911F910F91FF90EF9010
S113056008958F929F92AF92BF92CF92DF92EF92B3
S1130570FF920F931F93FB01009721F531C0440FA5
S1130580551F661F771F4A015B01880C991CAA1C22
S1130590BB1C880C991CAA1CBB1C480D591D6A1D48
S11305A07B1D10E000531109012E000C220B330BAC
S11305B0400F511F621F731F2FEFC21AD20AE20AA3
S11305C0F20A06C0C12CD12C760140E050E0BA01F9
S11305D0DC01AC0DBD1D0C910111D1CF408301C0D4
S11305E081E01F910F91FF90EF90DF90CF90BF902B
S11305F0AF909F908F9008951F93CF93DF931F9296
S1130600CDB7DEB7182F40E061E081E00E94BF0063
S113061040E062E081E00E94BF0041E063E081E0ED
S11306200E94BF008FEC97E00197F1F700C0000033
S11306301982BE016F5F7F4F80E00E948D01698146
S11306406F70812F807F682B698380E00E9477011F
S1130650EFECF7E03197F1F700C0000040E063E011
S113066081E00E94BF008FEC97E00197F1F700C092
S1130670000041E063E081E00E94BF00EFECF7E09E
S11306803197F1F700C00000BE016F5F7F4F80E03B
S11306900E948D01F0E11F9FC001112469816F70D8
S11306A0682B698380E00E94770189838FEC97E04F
S11306B00197F1F700C0000040E063E081E00E9490
S11306C0BF00EFE9FFE03197F1F700C000000F90A1
S11306D0DF91CF911F91089541E061E081E00E9494
S11306E0410041E062E081E00E94410041E063E0BA
S11306F081E00E94410041E064E080E00E9441000A
S113070041E065E080E00E94410041E066E080E075
S11307100E94410041E067E080E00E9441008FE2D6
S113072095E70197F1F700C0000083E30E94FC0203
S113073082E30E94FC0288E20E94FC028CE00E9498
S1130740FC0286E00E94FC0281E00E94FC028FE928
S11307509FE00197F1F700C0000081E00E94FC02D5
S113076080E80E94FC0208951F93CF93DF931F92A9
S1130770CDB7DEB7182F41E061E081E00E94BF00F1
S113078040E062E081E00E94BF001982BE016F5F19
S11307907F4F80E00E948D0169816F70812F807F7F
S11307A0682B698380E00E94770141E063E081E087
S11307B00E94BF008FEC97E00197F1F700C00000A2
S11307C040E063E081E00E94BF00BE016F5F7F4FA5
S11307D080E00E948D01E0E11E9FC0011124698127
S11307E06F70682B698380E00E94770141E063E0C9
S11307F081E00E94BF008FEC97E00197F1F700C001
S1130800000040E063E081E00E94BF00EFE9FFE008
S11308103197F1F700C000000F90DF91CF911F9145
S1130820089581E00E94FC020895CF93DF9300D0E5
S1130830CDB7DEB7198290E49A83E1E0F0E0EC0FE3
S1130840FD1FE80FF11D8081860F80680E94FC0265
S11308500F900F90DF91CF9108950F931F93CF9333
S11308608C01C0E081E004C0892F0E94B403CF5FF3
S1130870F801EC0FF11D90819111F6CFCF911F91EA
S11308800F910895EF92FF920F931F93CF93DF93ED
S1130890EC01062FF42E642F802F0E941504E12C06
S11308A010E081E01FC02031310534F4892F0E940B
S11308B0B4031F5F219616C02031310541F4E110C5
S11308C006C060E081E00E941504E3940BC020326E
S11308D0310544F421E0E21205C0892F0E94B403DB
S11308E01F5F21969881992361F02F2D30E0210F0D
S11308F0311D40E1049F200D311D112420323105AA
S113090094F2DF91CF911F910F91FF90EF90089592
S11309100F931F93CF936830B8F48C01862F880F00
S1130920880F880F80640E94FC02C0E007C0F801B1
S1130930EC0FF11D80810E94B403CF5FC830B8F37F
S113094082E00E94FC0201C081E0CF911F910F91CF
S11309500895CF93883050F4962FC82F642F892F91
S11309600E9415048C2F0E94B40301C081E0CF9132
S113097008950F931F93CF93DF93CDB7DEB7659799
S11309800FB6F894DEBF0FBECDBF042F10E00E9457
S11309907C08DC01CB01A801BE016F5F7F4F0E9480
S11309A02409CE0101960E942D0465960FB6F89491
S11309B0DEBF0FBECDBFDF91CF911F910F91089580
S11309C0CF93DF93CDB7DEB7AD970FB6F894DEBF04
S11309D00FBECDBF81E089831A820E946C030E94FE
S11309E0AB0140E060E081E00E94410040E062E051
S11309F083E00E9441002FEF84E39CE0215080407B
S1130A009040E1F700C0000060E080ED90E00E94BB
S1130A10880440E060E080E00E94A904E12CAFEF8C
S1130A20B0E722E0A150B0402040E1F700C0000050
S1130A30AE014F5F5F4F60E081E00E943D0162E0E4
S1130A4080E00E94150488EE90E00E942D0462E08C
S1130A5081E00E94150482EF90E00E942D0481E061
S1130A60E81210C08981813069F460E00E941504A5
S1130A7080E20E94B40340E060E080E00E94A904A8
S1130A80E12C29C3E11012C08981813079F460E03E
S1130A9080E00E94150480E20E94B40340E061E01B
S1130AA080E00E94A904EE24E39415C3E110F1C18F
S1130AB08A81813009F0EDC10E94110440E060E0B8
S1130AC08DEF90E00E9442049FEFA3E2B4EF9150B7
S1130AD0A040B040E1F700C000000E94110460E0B3
S1130AE088EC90E00E94880460E088EC90E00E942A
S1130AF0880461E080EC90E00E94880462E080EB6E
S1130B0090E00E9488040E94110460E080E00E944A
S1130B10150480E20E94B40360E080E00E941504A2
S1130B208EE191E00E942D0410E026C0412F61E087
S1130B3080E00E94A9042FEF83EC99E021508040CB
S1130B409040E1F700C00000412F61E081E00E9485
S1130B50A904AFEFB1EE24E0A150B0402040E1F78A
S1130B6000C000001F3039F0612F81E00E9415049D
S1130B7080E20E94B4031F5F1031C0F28FEF9DE347
S1130B80A9E481509040A040E1F700C0000060E07B
S1130B9080E00E94150489E291E00E942D0461E046
S1130BA088EB90E00E948804BFEF2DE389E4B15004
S1130BB020408040E1F700C0000060E080E00E9437
S1130BC0150489E391E00E942D0460E080E00E9416
S1130BD0150489E491E00E942D0410E01FC0412F08
S1130BE061E082E00E94A9049FEFA7E8B3E191507D
S1130BF0A040B040E1F700C00000612F81E00E94F6
S1130C00150480E20E94B4031E3039F46EE081E0E2
S1130C100E94150480E20E94B4031F5F1F30F8F2A3
S1130C2060E088EA90E00E94880462E080EA90E054
S1130C300E94880460E080E00E94150486E591E04B
S1130C400E942D0410E01DC04FE061E080E00E948E
S1130C50A9042FEF87E893E1215080409040E1F709
S1130C6000C000004FE061E082E00E94A904AFEF01
S1130C70B7E823E1A150B0402040E1F700C00000F4
S1130C801F5F1F3008F34FE061E081E00E94A90478
S1130C9062E088E990E00E94880463E080E990E0E3
S1130CA00E94880400E03EC01FE0101B412F61E059
S1130CB082E00E94A9048FEF93ECA9E08150904058
S1130CC0A040E1F700C00000412F61E081E00E94F4
S1130CD0A904BFEF20E782E0B15020408040E1F753
S1130CE000C000008DE0F82EF01A4F2D61E083E083
S1130CF00E94A9049FEFA3ECB9E09150A040B0403A
S1130D00E1F700C00000612F81E00E94150480E239
S1130D100E94B4036F2D81E00E94150480E20E94BA
S1130D20B4030F5F0F3008F4BFCF63E080EC90E0B2
S1130D300E94880440E061E083E00E94A9042FEF50
S1130D408DE399E4215080409040E1F700C0000019
S1130D5060E080E00E94150483E691E00E942D0487
S1130D60AFEFBDE329E4A150B0402040E1F700C05B
S1130D70000060E080E00E9415048FE691E00E948C
S1130D802D048FEF93EDA0E381509040A040E1F754
S1130D9000C0000062E088EC90E00E94880460E0FB
S1130DA088E890E00E9488044DE060E080E00E94C2
S1130DB0A90461E080E890E00E9488044EE060E0CD
S1130DC081E00E94A90464E088E790E00E9488041E
S1130DD04FE060E084E00E94A90465E080E790E0D1
S1130DE00E9488044DE061E085E00E94A90466E069
S1130DF088E690E00E9488044EE061E086E00E946C
S1130E00A90467E080E690E00E9488044FE061E076
S1130E1087E00E94A90410E026C0412F61E082E02F
S1130E200E94A904BFEF23EC89E0B1502040804028
S1130E30E1F700C00000412F61E083E00E94A904B3
S1130E409FEFA1EEB4E09150A040B040E1F700C0A4
S1130E5000001F3039F0612F81E00E94150480E208
S1130E600E94B4031F5F1D30C0F20E94110460E0B1
S1130E7080ED90E00E94880460E080ED90E00E94A4
S1130E8088040E94110440E060E080E00E94A9040C
S1130E9022C121E0E2121FC18A81813009F01BC105
S1130EA00E94110440E060E08CE791E00E9442045B
S1130EB0FE01779684E1DF011D928A95E9F78EE4BD
S1130EC08DA781E08CA78BA710E027C08EE48DA7A7
S1130ED004C0CE018D960E94FC018DA58E34C9F309
S1130EE0111102C08823C9F0612F81E00E9415040A
S1130EF08DA50E94B403BFEF23ED80E3B1502040E1
S1130F008040E1F700C000008DA5E7E1F0E0EC0FC0
S1130F10FD1FE10FF11D80831F5F8DA58111D6CFC9
S1130F20BE01645D7F4FCE0147960E94B1020E94CC
S1130F30110440E060E08DE891E00E9442048EE4F8
S1130F408DA700E023C0CE018D960E94FC018DA5E3
S1130F508E34C9F38823D1F096ED980F923020F0A7
S1130F608D3211F08F3291F460E081E00E9415041B
S1130F708DA50E94B4039FEFA3EDB0E39150A04070
S1130F80B040E1F700C000000DA51DA68DA581119C
S1130F90DECF0E94110440E060E08DE991E00E9400
S1130FA04204FE01339684E1DF011D928A95E9F73C
S1130FB08EE48DA710E027C08EE48DA704C0CE0177
S1130FC08D960E94FC018DA58E34C9F3111102C0C7
S1130FD08823C9F0612F81E00E9415048DA50E9429
S1130FE0B403BFEF23ED80E3B15020408040E1F72C
S1130FF000C000008DA5E3E0F0E0EC0FFD1FE10F61
S1131000F11D80831F5F8DA58111D6CFBE01655D63
S11310107F4FCE0103960E94B1020E94110440E06A
S113102060E08EEA91E00E9442040B3249F018F429
S11310300A3219F12CC00D3269F00F32A9F027C021
S11310408CA56BA570E0680F711D072E000C880B32
S1131050990B20C06CA570E08BA5681B7109072E45
S1131060000C880B990B16C08CA56BA50E9418095F
S1131070682F70E080E090E00DC08CA56BA5869F82
S1131080B0011124072E000C880B990B03C060E0FB
S113109070E0CB010E94B2084AE00E94B9049FEFBD
S11310A0A3E2B4EF9150A040B040E1F700C00000CB
S11310B00E94110460E080ED90E00E94880460E0EA
S11310C080ED90E00E9488040E94110440E060E0FA
S11310D080E00E94A904AE014E5F5F4F62E083E0AE
S11310E00E943D012FEF84E39CE02150804090401A
S11310F0E1F700C0000093CC0E9483086894B1110A
S11311000C94120908950E94F70888F09F5798F0EC
S1131110B92F9927B751B0F0E1F0660F771F881FF8
S1131120991F1AF0BA95C9F714C0B13091F00E9412
S11311301109B1E008950C941109672F782F8827BD
S1131140B85F39F0B93FCCF3869577956795B39539
S1131150D9F73EF490958095709561957F4F8F4FA8
S11311609F4F0895E89409C097FB3EF490958095AD
S1131170709561957F4F8F4F9F4F9923A9F0F92F59
S113118096E9BB279395F695879577956795B795D7
S1131190F111F8CFFAF4BB0F11F460FF1BC06F5FBD
S11311A07F4F8F4F9F4F16C0882311F096E911C0CF
S11311B0772321F09EE8872F762F05C0662371F0F0
S11311C096E8862F70E060E02AF09A95660F771F04
S11311D0881FDAF7880F9695879597F9089557FD34
S11311E09058440F551F59F05F3F71F04795880F91
S11311F097FB991F61F09F3F79F087950895121628
S113120013061406551FF2CF4695F1DF08C01616D3
S113121017061806991FF1CF869571056105089484
S11312200895E894BB2766277727CB0197F908959B
S1131230991B79E004C0991F961708F0961B881F24
S11312407A95C9F7809508954532510520F44230C6
S113125010F00C942F09FB011082CB010895BB27D9
S11312604A3031F4992322F4BDE2909581959F4F41
S11312700C943B09BB27FB015527AA27880F991F0C
S1131280AA1FA41710F0A41B83955051B9F7A05DB1
S1131290AA3308F0A95DA193009779F7B111B1932E
S11312A01192CB010C945409DC01FC01672F71915C
S11312B07723E1F7329704C07C916D937083629138
S10F12C0AE17BF07C8F30895F894FFCFE1
S11312CC020202020202021E020202121212121F75
S11312DC080808090909090F0010080402011F0273
S11312EC001F080412011F020000010205081F0858
S11312FC00000000000000010606000F06060B1992
S113130C06060017061E1202060600070606160637
S113131C0000000000000010060600060606060E7B
S113132C0C0C000C0C0C0C0E0C0C000E1C0C1A13DC
S113133C000004061F0604003132332B3435362DDD
S113134C3738392A00303D2F416E696D6174696FED
S113135C6E0043616C63756C61746F720048692034
S113136C53616D69722C20485944203F204D7920DB
S113137C4E616D6520697320414D4954200049200C
S113138C63616E2072756E20005761697420612050
S113139C4D696E7574652E2E00202020202020208F
S11313AC20202020202020200067697665206D6590
S11313BC2062616C6C00697427732046756E202062
S11313CC20200069274D2054697265642E2E006913
S11313DC276C6C20676F20686F6D65004869204529
S11313EC6E746572204E756D6265723100456E7453
S11313FC6572206F7065726174696F6E0048692044
S113140C456E746572204E756D6265723200546857
S111141C6520726573756C742069732000007E
S9030000FC
