:100000000C942A000C943F000C943F000C943F0089
:100010000C943F000C943F000C943F000C943F0064
:100020000C943F000C943F000C943F000C943F0054
:100030000C943F000C943F000C943F000C943F0044
:100040000C943F000C943F000C943F000C943F0034
:100050000C943F0011241FBECFE5D8E0DEBFCDBF1A
:1000600010E0A0E6B0E0EAEBF7E002C005900D92E8
:10007000A037B107D9F70E94B7030C94DB030C94A7
:1000800000004130C1F5813091F028F08230D9F084
:10009000833029F16EC081E090E002C0880F991F83
:1000A0006A95E2F79AB3892B8ABB80E0089581E0D4
:1000B00090E002C0880F991F6A95E2F797B3892BE9
:1000C00087BB80E0089581E090E002C0880F991F0F
:1000D0006A95E2F794B3892B84BB80E0089581E0B0
:1000E00090E002C0880F991F6A95E2F791B3892BBF
:1000F00081BB80E0089541113EC0813099F028F025
:100100008230E9F0833041F138C081E090E002C0F4
:10011000880F991F6A95E2F780959AB389238ABB65
:1001200080E0089581E090E002C0880F991F6A95F1
:10013000E2F7809597B3892387BB80E0089581E03B
:1001400090E002C0880F991F6A95E2F7809594B3FA
:10015000892384BB80E0089581E090E002C0880F8D
:10016000991F6A95E2F7809591B3892381BB80E05E
:10017000089581E0089581E0089581E00895413077
:10018000C1F5813091F028F08230D9F0833029F127
:100190006EC081E090E002C0880F991F6A95E2F777
:1001A0009BB3892B8BBB80E0089581E090E002C077
:1001B000880F991F6A95E2F798B3892B88BB80E076
:1001C000089581E090E002C0880F991F6A95E2F7D8
:1001D00095B3892B85BB80E0089581E090E002C053
:1001E000880F991F6A95E2F792B3892B82BB80E052
:1001F000089541113EC0813099F028F08230E9F035
:10020000833041F138C081E090E002C0880F991F2F
:100210006A95E2F780959BB389238BBB80E00895B4
:1002200081E090E002C0880F991F6A95E2F78095FF
:1002300098B3892388BB80E0089581E090E002C0F4
:10024000880F991F6A95E2F7809595B3892385BB3E
:1002500080E0089581E090E002C0880F991F6A95C0
:10026000E2F7809592B3892382BB80E0089581E014
:10027000089581E0089581E00895813091F028F09B
:100280008230D9F0833029F130C089B390E002C0C8
:10029000959587956A95E2F78170FA01808380E0F1
:1002A000089586B390E002C0959587956A95E2F728
:1002B0008170FA01808380E0089583B390E002C0EA
:1002C000959587956A95E2F78170FA01808380E0C1
:1002D000089580B390E002C0959587956A95E2F7FE
:1002E0008170FA01808380E0089581E00895813073
:1002F00049F028F0823049F0833051F00CC06BBBDC
:1003000080E0089568BB80E0089565BB80E00895B3
:1003100062BB80E0089581E00895813059F028F0B3
:10032000823069F0833081F014C089B3FB0180838F
:1003300080E0089586B3FB01808380E0089583B355
:10034000FB01808380E0089580B3FB01808380E01F
:10035000089581E0089541E060E082E00E9441005C
:1003600041E061E082E00E94410041E062E082E021
:100370000E94410041E063E082E00E94410041E0D0
:1003800060E082E00E94BF0041E061E082E00E9404
:10039000BF0041E062E082E00E94BF0041E063E014
:1003A00082E00E94BF0040E064E082E00E944100E1
:1003B00040E065E082E00E94410040E066E082E0CB
:1003C0000E94410040E065E083E00E94410041E07E
:1003D00064E082E00E94BF0041E065E082E00E94AC
:1003E000BF0041E066E082E00E94BF0041E065E0BE
:1003F00083E00E94BF000895EF92FF920F931F9336
:10040000CF93DF93CDB7DEB761970FB6F894DEBF19
:100410000FBECDBF7C018EE4F701808380E1E0E672
:10042000F0E0DE01119601900D928A95E1F7198AAC
:1004300000E081E086C0013061F028F0023079F000
:100440000330A1F011C040E060E082E00E94BF00F4
:100450000BC040E061E082E00E94BF0005C040E0C8
:1004600062E082E00E94BF0010E043C040E063E031
:1004700082E00E94BF00F8CF113071F028F01230F6
:1004800099F01330C9F01FC0AE014F5E5F4F64E0BA
:1004900082E00E943D0117C0AE014F5E5F4F65E0F4
:1004A00082E00E943D010FC0AE014F5E5F4F66E0EB
:1004B00082E00E943D0107C0AE014F5E5F4F65E0E4
:1004C00083E00E943D018989811112C0E02FF0E094
:1004D000EE0FFF1FEE0FFF1F81E090E08C0F9D1FBE
:1004E000E80FF91FE10FF11D8081F701808303C040
:1004F0001F5F143008F2013061F028F0023079F00B
:10050000033099F018C041E060E082E00E94BF0033
:1005100013C041E061E082E00E94BF000DC041E0F5
:1005200062E082E00E94BF0007C041E063E082E039
:100530000E94BF0001C081E0F70190819E3421F448
:100540000F5F043008F477CF61960FB6F894DEBFE2
:100550000FBECDBFDF91CF911F910F91FF90EF9014
:1005600008951F93CF93DF931F92CDB7DEB7182F57
:1005700040E061E081E00E94BF0040E062E081E095
:100580000E94BF001982BE016F5F7F4F80E00E9412
:100590008D0169816F70812F807F682B698380E076
:1005A0000E947701898341E063E081E00E94BF00FF
:1005B00025E02A95F1F7000040E063E081E00E9429
:1005C000BF008FE193E00197F1F700C00000BE018A
:1005D0006F5F7F4F80E00E948D01E0E11E9FC001B0
:1005E000112469816F70682B698380E00E94770114
:1005F000898341E063E081E00E94BF00F5E0FA9565
:10060000F1F7000040E063E081E00E94BF00EFE30B
:10061000FFE13197F1F700C000000F90DF91CF911B
:100620001F91089541E061E081E00E94410041E0B6
:1006300062E081E00E94410041E063E081E00E94CD
:10064000410041E064E080E00E94410041E065E05B
:1006500080E00E94410041E066E080E00E944100AD
:1006600041E067E080E00E9441008FE59AEE01974B
:10067000F1F700C0000083E30E94B10282E30E9410
:10068000B10288E20E94B1028CE00E94B10286E0D1
:100690000E94B10281E00E94B1028FE39FE10197C5
:1006A000F1F700C0000081E00E94B10280E80E94E2
:1006B000B10208951F93CF93DF931F92CDB7DEB79A
:1006C000182F41E061E081E00E94BF0040E062E05D
:1006D00081E00E94BF001982BE016F5F7F4F80E002
:1006E0000E948D0169816F70812F807F682B6983E3
:1006F00080E00E94770141E063E081E00E94BF005A
:100700008FE99FE00197F1F700C0000040E063E04F
:1007100081E00E94BF00BE016F5F7F4F80E00E94BA
:100720008D01E0E11E9FC001112469816F70682B6B
:10073000698380E00E94770141E063E081E00E94EC
:10074000BF008FE99FE00197F1F700C0000040E093
:1007500063E081E00E94BF00EFE3FFE13197F1F732
:1007600000C000000F90DF91CF911F910895CF93AB
:10077000DF931F92CDB7DEB70E9412030E94AB0138
:100780008BE40E945A038EE4898304C0CE01019653
:100790000E94FC0189818E34C9F30E945A032FEF15
:1007A00083ED90E3215080409040E1F700C00000CD
:0A07B0008EE48983EFCFF894FFCFA9
:1007BA003132332B3435362D3738392A2E303D2F06
:00000001FF
