S00C00004C6162352E73726563D4
S11300000C942A000C9452010C943C000C943C0077
S11300100C943C000C943C000C943C000C943C006C
S11300200C943C000C943C000C943C000C943C005C
S11300300C943C000C943C000C943C000C943C004C
S11300400C943C000C943C000C943C000C943C003C
S11300500C943C0011241FBECFE5D8E0DEBFCDBF19
S113006020E0A0E6B0E001C01D92A136B207E1F79E
S11300700E9448010C9488010C9400004130C1F5A1
S1130080813091F028F08230D9F0833029F16EC0AC
S113009081E090E002C0880F991F6A95E2F79AB355
S11300A0892B8ABB80E0089581E090E002C0880F2C
S11300B0991F6A95E2F797B3892B87BB80E008956F
S11300C081E090E002C0880F991F6A95E2F794B32B
S11300D0892B84BB80E0089581E090E002C0880F02
S11300E0991F6A95E2F791B3892B81BB80E008954B
S11300F041113EC0813099F028F08230E9F083301C
S113010041F138C081E090E002C0880F991F6A95E0
S1130110E2F780959AB389238ABB80E0089581E051
S113012090E002C0880F991F6A95E2F7809597B313
S1130130892387BB80E0089581E090E002C0880FA6
S1130140991F6A95E2F7809594B3892384BB80E074
S1130150089581E090E002C0880F991F6A95E2F744
S1130160809591B3892381BB80E0089581E008954F
S113017081E0089581E008954130C1F5813091F026
S113018028F08230D9F0833029F16EC081E090E00C
S113019002C0880F991F6A95E2F79BB3892B8BBB2A
S11301A080E0089581E090E002C0880F991F6A956D
S11301B0E2F798B3892B88BB80E0089581E090E052
S11301C002C0880F991F6A95E2F795B3892B85BB06
S11301D080E0089581E090E002C0880F991F6A953D
S11301E0E2F792B3892B82BB80E0089541113EC0AF
S11301F0813099F028F08230E9F0833041F138C041
S113020081E090E002C0880F991F6A95E2F780951B
S11302109BB389238BBB80E0089581E090E002C00A
S1130220880F991F6A95E2F7809598B3892388BB54
S113023080E0089581E090E002C0880F991F6A95DC
S1130240E2F7809595B3892385BB80E0089581E02A
S113025090E002C0880F991F6A95E2F7809592B3E7
S1130260892382BB80E0089581E0089581E00895A8
S113027081E0089585B78E7F85BF85B7826085BF8D
S11302808BB780648BBF08958FB780688FBF089544
S113029041E063E083E00E943E000E943A010E9434
S11302A04401FFCF1F920F920FB60F9211242F9388
S11302B03F934F935F936F937F938F939F93AF93EA
S11302C0BF93EF93FF9380916000811109C041E0D7
S11302D063E083E00E94BC0081E08093600007C07B
S11302E040E063E083E00E94BC0010926000FF9154
S11302F0EF91BF91AF919F918F917F916F915F919A
S11303004F913F912F910F900FBE0F901F90189512
S1070310F894FFCF8B
S9030000FC
