S00C00004C6162312E73726563D8
S11300000C942A000C9434000C9434000C943400A6
S11300100C9434000C9434000C9434000C9434008C
S11300200C9434000C9434000C9434000C9434007C
S11300300C9434000C9434000C9434000C9434006C
S11300400C9434000C9434000C9434000C9434005C
S11300500C94340011241FBECFE5D8E0DEBFCDBF21
S11300600E94EA010C9409020C9400004130C1F58D
S1130070813091F028F08230D9F0833029F16EC0BC
S113008081E090E002C0880F991F6A95E2F79AB365
S1130090892B8ABB80E0089581E090E002C0880F3C
S11300A0991F6A95E2F797B3892B87BB80E008957F
S11300B081E090E002C0880F991F6A95E2F794B33B
S11300C0892B84BB80E0089581E090E002C0880F12
S11300D0991F6A95E2F791B3892B81BB80E008955B
S11300E041113EC0813099F028F08230E9F083302C
S11300F041F138C081E090E002C0880F991F6A95F1
S1130100E2F780959AB389238ABB80E0089581E061
S113011090E002C0880F991F6A95E2F7809597B323
S1130120892387BB80E0089581E090E002C0880FB6
S1130130991F6A95E2F7809594B3892384BB80E084
S1130140089581E090E002C0880F991F6A95E2F754
S1130150809591B3892381BB80E0089581E008955F
S113016081E0089581E008954130C1F5813091F036
S113017028F08230D9F0833029F16EC081E090E01C
S113018002C0880F991F6A95E2F79BB3892B8BBB3A
S113019080E0089581E090E002C0880F991F6A957D
S11301A0E2F798B3892B88BB80E0089581E090E062
S11301B002C0880F991F6A95E2F795B3892B85BB16
S11301C080E0089581E090E002C0880F991F6A954D
S11301D0E2F792B3892B82BB80E0089541113EC0BF
S11301E0813099F028F08230E9F0833041F138C051
S11301F081E090E002C0880F991F6A95E2F780952C
S11302009BB389238BBB80E0089581E090E002C01A
S1130210880F991F6A95E2F7809598B3892388BB64
S113022080E0089581E090E002C0880F991F6A95EC
S1130230E2F7809595B3892385BB80E0089581E03A
S113024090E002C0880F991F6A95E2F7809592B3F7
S1130250892382BB80E0089581E0089581E00895B8
S113026081E00895813091F028F08230D9F0833014
S113027029F130C081E090E002C0880F991F6A958F
S1130280E2F79BB389278BBB80E0089581E090E07F
S113029002C0880F991F6A95E2F798B3892788BB33
S11302A080E0089581E090E002C0880F991F6A956C
S11302B0E2F795B3892785BB80E0089581E090E05B
S11302C002C0880F991F6A95E2F792B3892782BB0F
S11302D080E0089581E00895833089F0873041F00B
S11302E08230A1F441E062E00E94360080E008958B
S11302F041E067E082E00E94360080E0089541E03A
S113030063E083E00E94360080E0089581E0089570
S1130310833089F0873041F08230A1F441E062E01B
S11303200E94B40080E0089541E067E082E00E940A
S1130330B40080E0089541E063E083E00E94B400EB
S113034080E0089581E00895833089F0873041F09A
S11303508230A1F440E062E00E94B40080E008959D
S113036040E067E082E00E94B40080E0089540E04D
S113037063E083E00E94B40080E0089581E0089582
S1130380833079F0873039F0823089F462E00E945A
S1130390320180E0089567E082E00E94320180E04B
S11303A0089563E083E00E94320180E0089581E0D3
S11303B00895613039F018F0623039F009C00E94B4
S11303C0A40108950E94880108950E94C00108951F
S11303D081E0089582E00E946C0187E00E946C0134
S11303E083E00E946C0162E082E00E94D90162E035
S11303F087E00E94D90162E083E00E94D9012FEFD7
S113040083ED90E3215080409040E1F700C000006C
S1090410EACFF894FFCFCF
S9030000FC
